:100000000C94A7000C9485010C94C4000C94C400BB
:100010000C94C4000C94C4000C94C4000C94C40050
:100020000C94C4000C94C4000C94C4000C94700193
:100030000C94C4000C94C4000C94C4000C94C40030
:100040000C94C4000C94C4000C94C4000C94C40020
:100050000C94C40000407A10F35A00A0724E1809A4
:100060000010A5D4E80000E87648170000E40B541F
:10007000020000CA9A3B000000E1F50500008096EE
:100080009800000040420F000000A0860100000020
:10009000102700000000E8030000000064000000DA
:1000A00000000A00000000000100000000002C76A3
:1000B000D888DC674F0823DFC1DFAE59E1B1B796BE
:1000C000E5E3E453C63AE651997696E8E6C284261B
:1000D000EB898C9B62ED407C6FFCEFBC9C9F40F2F7
:1000E000BAA56FA5F490055A2AF75C936B6CF96773
:1000F0006DC11BFCE0E40D47FEF520E6B500D0ED38
:10010000902E0300943577050080841E080000209F
:100110004E0A000000C80C333333330F986E12833D
:100120001141EF8D2114893BE65516CFFEE6DB1811
:10013000D1844B381BF77C1D901DA4BBE4242032D6
:1001400084725E228100C9F124ECA1E53D271124CF
:100150001FBECFE5D8E0DEBFCDBF10E0A0E6B0E027
:10016000ECE1FCE002C005900D92A636B107D9F78C
:1001700020E0A6E6B0E001C01D92AF36B207E1F77D
:100180000E9432010C940C060C9400002AB12861E4
:100190002AB920B5266820BDDC01CB01880F991F44
:1001A000AA1FBB1F880F991FAA1FBB1F9C01AD016F
:1001B000220F331F441F551F220F331F441F551F8B
:1001C00060E072E18AE790E00E9461038FEF820FA6
:1001D00089B9DA01C9010197A109B109892F9A2FBB
:1001E000AB2FBB2780BD08955D9BFECF8CB90895D2
:1001F0000F931F93CF93DF938C01C0E003C00E9445
:10020000F400CF5FF801EC0FF11D80818111F7CF71
:10021000C0E0D0E003C00E94F4002196FE01EE5938
:10022000FF4F80818111F7CFDF91CF911F910F9107
:10023000089581B38F7B81BB81B38F7D81BB87B3F1
:10024000806187BB87B3806287BB81B3806481BBD9
:1002500084E082BB82E085BF80E48BBF12BE81E078
:1002600089BF08950E94190160E875E280E090E07E
:100270000E94C600789488B38F7E88BB88B3806262
:1002800088BB88B38F7B88BB80B382958695869523
:10029000837091E089278170209160003091610026
:1002A0002130310509F090E0892371F388B38F7E06
:1002B00088BB88B38F7D88BB88B38F7B88BB2FEFCB
:1002C00087EB9BE0215080409040E1F700C00000A8
:1002D000109261001092600012BE85E083BFD4CFFF
:1002E0001F920F920FB60F9211248F9388B38061E3
:1002F00088BB88B38F7D88BB88B38F7B88BB8F9189
:100300000F900FBE0F901F9018951F920F920FB66F
:100310000F9211240F931F932F933F934F935F934B
:100320006F937F938F939F93AF93BF93EF93FF93BD
:1003300013BE62B770E080E090E00E94680220E0A7
:1003400030E040E25FE30E94F40227EE3BEF49EA2F
:100350005EE30E94F40223E333E34BEB51E40E949B
:10036000F901609366007093670080936800909332
:100370006900859B0BC0DC01CB01B05880936600FF
:1003800090936700A0936800B09369006091660045
:100390007091670080916800909169000AE610E012
:1003A00022E042E00E948303C8010E94F80081E03D
:1003B00090E0909361008093600088B38F7E88BB4B
:1003C00088B3806288BB88B38F7B88BBFF91EF9135
:1003D000BF91AF919F918F917F916F915F914F915D
:1003E0003F912F911F910F910F900FBE0F901F9073
:1003F00018955058BB27AA270E9411020C94BA02E4
:100400000E94AC0238F00E94B30220F039F49F3F02
:1004100019F426F40C94A9020EF4E095E7FB0C9471
:10042000A302E92F0E94CB0258F3BA1762077307A1
:100430008407950720F079F4A6F50C94ED020EF4EC
:10044000E0950B2EBA2FA02D0B01B90190010C01E4
:10045000CA01A0011124FF27591B99F0593F50F4FC
:10046000503E68F11A16F040A22F232F342F442754
:10047000585FF3CF469537952795A795F04053954C
:10048000C9F77EF41F16BA0B620B730B840BBAF01C
:100490009150A1F0FF0FBB1F661F771F881FC2F787
:1004A0000EC0BA0F621F731F841F48F4879577959B
:1004B0006795B795F7959E3F08F0B0CF9395880F55
:1004C00008F09927EE0F979587950895E89409C04D
:1004D00097FB3EF490958095709561957F4F8F4F77
:1004E0009F4F9923A9F0F92F96E9BB279395F6958D
:1004F000879577956795B795F111F8CFFAF4BB0F0B
:1005000011F460FF1BC06F5F7F4F8F4F9F4F16C06E
:10051000882311F096E911C0772321F09EE8872FF8
:10052000762F05C0662371F096E8862F70E060E0B4
:100530002AF09A95660F771F881FDAF7880F96952D
:10054000879597F9089597F99F6780E870E060E0D4
:1005500008959FEF80EC089500240A94161617065C
:1005600018060906089500240A94121613061406A4
:1005700005060895092E0394000C11F4882352F007
:10058000BB0F40F4BF2B11F460FF04C06F5F7F4FBF
:100590008F4F9F4F089557FD9058440F551F59F0A6
:1005A0005F3F71F04795880F97FB991F61F09F3F60
:1005B00079F087950895121613061406551FF2CF89
:1005C0004695F1DF08C0161617061806991FF1CFD9
:1005D00086957105610508940895E894BB27662700
:1005E0007727CB0197F908950E9407030C94BA026C
:1005F0000E94AC0238F00E94B30220F0952311F063
:100600000C94A3020C94A90211240C94EE020E94F3
:10061000CB0270F3959FC1F3950F50E0551F629F79
:10062000F001729FBB27F00DB11D639FAA27F00D4B
:10063000B11DAA1F649F6627B00DA11D661F829F72
:100640002227B00DA11D621F739FB00DA11D621F57
:10065000839FA00D611D221F749F3327A00D611D74
:10066000231F849F600D211D822F762F6A2F112456
:100670009F5750409AF0F1F088234AF0EE0FFF1F89
:10068000BB1F661F771F881F91505040A9F79E3FE0
:10069000510580F00C94A3020C94EE025F3FE4F34A
:1006A000983ED4F3869577956795B795F795E79536
:1006B0009F5FC1F7FE2B880F911D9695879597F93F
:1006C0000895A1E21A2EAA1BBB1BFD010DC0AA1F93
:1006D000BB1FEE1FFF1FA217B307E407F50720F0AB
:1006E000A21BB30BE40BF50B661F771F881F991F26
:1006F0001A9469F760957095809590959B01AC016F
:10070000BD01CF010895EF920F931F93CF93DF9315
:10071000E80147FD02C034E001C034E1042E000CC2
:10072000550B57FF03C0519541955109E32E022FF8
:10073000242FAE010E94A303CE01DF91CF911F9120
:100740000F91EF900895A9E0B0E0E9EAF3E00C948E
:10075000DB056A01122FB02E2BE3201720F0FF24B7
:10076000F394F00E02C02CE3F22E0F2D27E0AE0121
:100770004F5F5F4F0E94FD04BC014981842F897047
:10078000813031F0E1FC06C0E0FE06C090E205C019
:100790009DE203C09BE201C090E05E2D507143FFDB
:1007A0003CC0911102C083E001C084E0811718F4BD
:1007B000212F281B01C020E051110BC0F601822F10
:1007C00030E2882319F031938150FBCFC20ED11C47
:1007D00020E0992329F0D6019C93F60131966F0110
:1007E000C6010396E2FE0AC03EE4D6013C9341E412
:1007F00011964C93119712963C9306C03EE6F60173
:10080000308341E641833283FC01322F40E23323BF
:1008100009F442C041933150FACF42FF44C09111D4
:1008200002C083E001C084E0811718F4212F281B47
:1008300001C020E051110BC0F601822F30E2882365
:1008400019F031938150FBCFC20ED11C20E09923C7
:1008500029F0D6019C93F60131966F01C6010396EB
:10086000E2FE0BC039E4D6013C933EE411963C9382
:10087000119736E412963C9307C039E6F6013083AF
:100880003EE6318336E63283FC01322F40E23323E9
:1008900019F041933150FBCFFC01E20FF11D1082A2
:1008A0008EEF9FEFA6C021E030E0911102C020E062
:1008B00030E0161617061CF4FB01319602C0E1E089
:1008C000F0E02E0F3F1FBB2021F0EB2DF0E0319622
:1008D00002C0E0E0F0E02E0F3F1FE12FF0E02E1706
:1008E0003F071CF4121B212F01C020E08E2D8871C0
:1008F00059F4F601822F30E2882319F031938150A8
:10090000FBCFC20ED11C20E0992329F0D6019C9385
:10091000F60131966F0151110BC0F601822F90E361
:10092000882319F091938150FBCFC20ED11C20E097
:100930000F2D060F9A81342F307144FF03C091337D
:1009400009F40150101624F4093018F008E001C031
:1009500001E0AB0177FF02C040E050E0FB01E41B87
:10096000F50BA1E0B0E0AC0FBD1FEA0FFB1F8EE25C
:10097000A82E4B01801A91080B2D10E011950195BE
:1009800011094F3FBFEF5B0721F4D601AC921196DE
:100990006D01641775072CF08416950614F4818197
:1009A00001C080E3415051093196D60111967D0175
:1009B0004017510724F0D6018C936701E2CF6417EA
:1009C000750739F4963320F4953319F4311101C0C9
:1009D00081E3F6018083F701822F90E2882319F0EA
:1009E00091938150FBCFF701E20FF11D108280E05F
:1009F00090E02996ECE00C94F705283008F027E009
:100A00003327DA01990F311D87FD9160009661054A
:100A1000710539F432602E5F3D9330E32A95E1F79A
:100A200008959F3F30F080387105610509F03C5F03
:100A30003C5F3D93913008F08068911DDF93CF9328
:100A40001F930F93FF92EF92192F987F9695E92F9E
:100A500096959695E90FFF27E255FF4F9927332783
:100A6000EE24FF24A701E70105900894079428F4D9
:100A7000360FE71EF81E491F511D660F771F881F8E
:100A8000991F0694A1F70590079428F4E70EF81E25
:100A9000491F561FC11D770F881F991F661F069497
:100AA000A1F70590079428F4F80E491F561FC71F99
:100AB000D11D880F991F661F771F0694A1F7059017
:100AC000079420F4490F561FC71FD81F990F661FA0
:100AD000771F881F0694A9F784911095177041F02D
:100AE000D695C79557954795F794E7941A95C1F70A
:100AF000E4E5F0E068941590159135916591959134
:100B000005907FE27395E118F10A430B560BC90B70
:100B1000D009C0F7E10CF11E431F561FC91FD01D9D
:100B20007EF4703311F48A95E6CFE894015030F0EA
:100B3000080F0AF40027021708F4202F2395022F2C
:100B40007A3328F079E37D932A95E9F710C07D93F5
:100B50002A9589F606949795679537951795179472
:100B6000E118F10A430B560BC90BD00998F02395F5
:100B70007E9173957A3308F070E37C932013B8F775
:100B80007E9170617D9330F0839571E37D9370E386
:100B90002A95E1F71124EF90FF900F911F91CF91CB
:100BA000DF91992787FD909508952F923F924F925C
:100BB0005F926F927F928F929F92AF92BF92CF92ED
:100BC000DF92EF92FF920F931F93CF93DF93CDB7F6
:100BD000DEB7CA1BDB0B0FB6F894DEBF0FBECDBF6E
:100BE00009942A88398848885F846E847D848C843F
:100BF0009B84AA84B984C884DF80EE80FD800C8148
:100C00001B81AA81B981CE0FD11D0FB6F894DEBF2A
:0C0C10000FBECDBFED010895F894FFCF9A
:060C1C0001000D0A0000BA
:00000001FF
